:100000009AC0B4C0B3C0B2C0B1C0B0C0AFC0AEC07F
:10001000ADC0ACC07CC1AAC0A9C0A8C0A7C07C1F8D
:100020000220022002207C1F0000000000000000CF
:100030007C1F001F8220822082207C000000822002
:10004000822082207C1F7C008000800080007C1F3A
:100050007C00822082208220001F7C1F8220822040
:100060008220001F0C000200020002007C1F7C1F87
:100070008220822082207C1F7C008220822082209D
:100080007C1FF03F8C0082008C00F03FFE3F8220FE
:100090008220822002207C10822082208220041F65
:1000A00002000200FE3F02000200FE0700180020CE
:1000B0000018FE07FE3F800080008000003F803F68
:1000C0008000803F8000003F0000300630060000C6
:1000D000000000000000000000000000C01CA0188C
:1000E000901488028401FC3F042006200420FC2F89
:1000F000FC3F043806380438FC3FFC3F043F063F11
:10010000043FFC3FFC3FE43FE63FE43FFC3FFC3F55
:10011000FC3FFE3FFC3FFC3FA81F2001DA028D148C
:10012000AFA1C8100A0FFF100E12FF100A12FF1223
:100130000C0B0D11FF0011241FBECFE5D2E0DEBF76
:10014000CDBF10E0A0E6B0E0E2EBF6E002C0059023
:100150000D92AC37B107D9F720E0ACE7B0E001C0B1
:100160001D92A038B207E1F7F7D0A1C249CF282FDE
:10017000B89898E080E0880FC895BA98B0998160E7
:10018000BA9A9150C1F72111B89AC895BA98C895F2
:10019000BA9A0895B89ABA98B898089598E087FFDF
:1001A00002C0B89801C0B89ABA98C895BA9A880F90
:1001B0009150A9F7C895B898BA98C895BA9A089571
:1001C0001F93CF93DF93E82FEE0F880F880F880FD0
:1001D000CE2FC80F80E0E2DF80E0E0DFDAE0DC0F66
:1001E00011E01C0FEC2FF0E0E25EFF4F8491D6DFB0
:1001F000C12FD113F5CFDF91CF911F910895B89AF8
:10020000BA9ACCCFCF93C82F88E7F9DF80E0C6DF5A
:1002100082E2C4DF8C2FC2DF81E08C0FBFDF80E081
:10022000BDDF80E1BBDF8C2F806BB8DFCF91B2CF19
:10023000CF93DF93C82F80E8E2DF8C2FAFDFB89831
:10024000BA9881E8DCDF81E092DFC82F80E08FDFA1
:10025000D0E0DC2FCC27C82B9DDFCE01DF91CF91E2
:100260000895CF93C82F843608F0C3E688E7C7DF28
:1002700080E494DF80E0CA3018F08F5FCA50FBCF73
:100280009FDF8C2F9DDFCF9185CF0F931F93CF934F
:10029000DF93EC01C03187E2D80710F0CFE0D7E25E
:1002A00088E7ADDF80E47ADF00E610E0F801219115
:1002B00031918F0180E0C217D30720F08F5FC21BFE
:1002C000D30BF9CF7DDFF0E008361F0779F7DF9118
:1002D000CF911F910F915ECFCF93DF93EC0188E711
:1002E0008EDF80E45BDFFE0184918F3F19F068DFD1
:1002F0002196F9CFDF91CF914DCFCF93C82F88E7CB
:100300007EDF80E44BDF8C2F5BDFCF9143CF1F92EA
:100310000F920FB60F9211248F939F93AF93BF93B9
:1003200080917C0090917D00A0917E00B0917F0033
:100330000196A11DB11D80937C0090937D00A09338
:100340007E00B0937F00BF91AF919F918F910F90EE
:100350000FBE0F901F901895CF93DF93CDB7DEB7E8
:100360002A970FB6F894DEBF0FBECDBFC19A87B3F0
:10037000886187BB87B38A7F87BB88B38A7F88BB46
:1003800080E83DDF80E00ADF86E008DF87E606DF01
:1003900001DF80E834DF85E001DF84E1FFDE80E01B
:1003A000FDDEF8DE8CE789BD82E08ABD83E083BF95
:1003B00080E189BF789488E722DF80E0EFDE68E1A2
:1003C00071E07A83698303E211E0E981FA81849123
:1003D000E5DE69817A816F5F7F4F7A8369830617D3
:1003E000170799F7D7DE80E00DDF88E708DF80E4A4
:1003F000D5DE198280E0D2DE798171507983711166
:10040000F9CFC8DE82E0FEDE88E7F9DE80E4C6DEF2
:1004100080E0C4DE8981815089838111F9CFBADE01
:10042000F89460917C0070917D0080917E009091A5
:100430007F0069837A838B839C83789401E010E04A
:10044000812C912C5401412C512C320182E0F0DEA0
:10045000969587951C017CEF272284E0E9DE9A8738
:10046000898703978D3F9F4710F01A861986D12CF4
:10047000ED2DF0E0EE0FFF1FEE58FF4F80819181D0
:100480008215930510F4D394F3CFE985FA85369756
:1004900028F0F4E0DF1202C023E0D22EF89460913D
:1004A0007C0070917D0080917E0090917F006D8333
:1004B0007E838F839887789489859A85069708F13B
:1004C0002D813E814F81588569817A818B819C8104
:1004D000261B370B480B590B420E531E641E751E0C
:1004E000E985FA85CF01A0E0B0E0BC01CD0190D054
:1004F00020E13EE040E050E0B8D0820E931EA41E02
:10050000B51EC301B20128EE33E040E050E0ADD0AB
:100510007901203A3C4820F09FE9E92E9CE8F92E29
:10052000B19916C0011116C069857A8566307105CA
:1005300088F41F5F143008F010E010FF02C0C39A67
:1005400001C0C39811FF02C0C49A04C0C49802C07D
:1005500000E001C001E080E055DE84E18D0DCDDEDC
:1005600089859A85069710F083E101C082E1C5DE96
:100570008FE291E0B1DEE12FF0E0EE0FFF1FE659D0
:10058000FF4F8081918181DE8BE291E0A5DEC70182
:1005900060E17EE056D06C01862FAFDE81E1ADDEFA
:1005A000C6016CE370E04DD0862F5BDE81E1A5DEF5
:1005B000C7016CE370E045D054DE82E023DEC10168
:1005C00064DE87E291E088DE89859A855EDE8BE2D3
:1005D00091E082DEC501B40128EE33E040E050E056
:1005E00044D0C90152DE83E291E076DE9FEFA0E7BE
:1005F000B2E09150A040B040E1F700C000006D8132
:100600007E818F81988569837A838B839C831ECFBB
:10061000EE27FF27AA27BB2708C0A20FB31FE41F9E
:10062000F51F220F331F441F551F96958795779509
:10063000679598F37040A9F7009799F7BD01CF012E
:100640000895AA1BBB1B51E107C0AA1FBB1FA61719
:10065000B70710F0A61BB70B881F991F5A95A9F76B
:1006600080959095BC01CD010895A1E21A2EAA1B98
:10067000BB1BFD010DC0AA1FBB1FEE1FFF1FA21752
:10068000B307E407F50720F0A21BB30BE40BF50B4F
:10069000661F771F881F991F1A9469F760957095D8
:1006A000809590959B01AC01BD01CF010895F89410
:0206B000FFCF7A
:1006B200E80364000A000100000064005E01EE022B
:0C06C200E803B80B100EA00F0410FFFF9F
:00000001FF
