:10000000A7C0B6C0B5C0B4C0B3C0B2C0B1C0B0C064
:10001000AFC0AEC079C1ACC0ABC0AAC0A9C07C1F84
:100020000220022002207C1F0000000000000000CF
:100030007C1F001F8220822082207C000000822002
:10004000822082207C1F7C008000800080007C1F3A
:100050007C00822082208220001F7C1F8220822040
:100060008220001F0C000200020002007C1F7C1F87
:100070008220822082207C1F7C008220822082209D
:100080007C1FF03F8C0082008C00F03FFE3F8220FE
:100090008220822002207C10822082208220041F65
:1000A00002000200FE3F02000200FE0700180020CE
:1000B0000018FE07FE3F800080008000003F803F68
:1000C0008000803F8000003F0000300630060000C6
:1000D000000000000000000000000000C01CA0188C
:1000E000901488028401FC3F042006200420FC2F89
:1000F000FC3F043806380438FC3FFC3F043F063F11
:10010000043FFC3FFC3FE43FE63FE43FFC3FFC3F55
:10011000FC3FFE3FFC3FFC3FE80364000A00010097
:10012000A81F2001DA028D14AFA1C8100A0FFF101A
:100130000E12FF100A12FF64005E01EE02E80312C5
:100140000C0B0D11FFB80B100EA00F0410FFFF00D9
:1001500011241FBECFE5D2E0DEBFCDBF20E0A0E678
:10016000B0E001C01D92A436B207E1F7F2D090C210
:1001700047CF282FB89898E080E0880FBA98B099B8
:100180008160BA9A9150C9F72111B89ABA98BA9A6F
:100190000895B89ABA98B898089598E087FF02C071
:1001A000B89801C0B89ABA98BA9A880F9150B1F726
:1001B000B898BA98BA9A08951F93CF93DF93E82F0F
:1001C000EE0F880F880F880FCE2FC80F80E0E5DF75
:1001D00080E0E3DFDAE0DC0F11E01C0FEC2FF0E051
:1001E000E25EFF4F8491D9DFC12FD113F5CFDF91AC
:1001F000CF911F910895B89ABA9ACFCFCF93C82FB5
:1002000088E7F9DF80E0C9DF82E2C7DF8C2FC5DF36
:1002100081E08C0FC2DF80E0C0DF80E1BEDF8C2F89
:10022000806BBBDFCF91B5CFCF93DF93C82F80E832
:10023000E2DF8C2FB2DFB898BA9881E8DCDF81E08A
:1002400098DFC82F80E095DFD0E0DC2FCC27C82BCB
:10025000A0DFCE01DF91CF910895CF93C82F8436D0
:1002600008F0C3E688E7C7DF80E497DF80E0CA30A4
:1002700018F08F5FCA50FBCF9FDF8C2F9DDFCF918F
:1002800088CF0F931F93CF93DF93EC01C03187E2A8
:10029000D80710F0CFE0D7E288E7ADDF80E47DDF5C
:1002A00008E111E0F8012591349180E0C217D307ED
:1002B00020F08F5FC21BD30BF9CF7EDF0E5F1F4F85
:1002C00081E00032180771F7DF91CF911F910F91F4
:1002D00060CFCF93DF93EC0188E78DDF80E45DDFB3
:1002E000FE0184918F3F19F067DF2196F9CFDF91EE
:1002F000CF914FCFCF93C82F88E77DDF80E44DDFCC
:100300008C2F5ADFCF9145CF1F920F920FB60F92CD
:1003100011248F939F93AF93BF938091600090912E
:100320006100A0916200B09163000196A11DB11D12
:100330008093600090936100A0936200B09363008B
:10034000BF91AF919F918F910F900FBE0F901F9013
:100350001895CF93DF93CDB7DEB72A970FB6F894F1
:10036000DEBF0FBECDBFC19ABB9ABC9A80E843DF07
:1003700080E013DF86E011DF87E60FDF0ADF80E829
:100380003ADF85E00ADF84E108DF80E006DF01DF95
:100390008CE789BD82E08ABD83BF80E189BF88E7A1
:1003A0002ADF80E0FADE60E271E07A8369830BE2A3
:1003B00011E0E981FA818491F0DE69817A816F5FD1
:1003C0007F4F7A8369830617170799F7E2DE80E08B
:1003D00015DF88E710DF80E4E0DE198280E0DDDEF3
:1003E0007981715079837111F9CFD3DE82E006DF14
:1003F00088E701DF80E4D1DE80E0CFDE89818150B3
:1004000089838111F9CFC5DEF89460916000709105
:100410006100809162009091630069837A838B838D
:100420009C83789401E010E0812C912C5401412CA4
:10043000512C320182E0F8DE969587951C017CEF05
:10044000272284E0F1DE9A87898705978B3F9F47B3
:1004500010F01A861986D12CED2DF0E0EE0FFF1F5B
:10046000EB5BFE4F859194918215930510F4D39424
:10047000F3CFE985FA85369728F0F4E0DF1202C061
:1004800023E0D22EF8946091600070916100809119
:100490006200909163006D837E838F839887789448
:1004A00089859A85069708F12D813E814F8158856F
:1004B00069817A818B819C81261B370B480B590BF4
:1004C000420E531E641E751EE985FA85CF01A0E019
:1004D000B0E0BC01CD018DD020E13EE040E050E035
:1004E000B5D0820E931EA41EB51EC301B20128EE24
:1004F00033E040E050E0AAD07901203A3C4820F0B7
:100500009FE9E92E9CE8F92EB19916C0011116C099
:1005100069857A856630710588F41F5F143008F0AC
:1005200010E010FF02C0C39A01C0C39811FF02C0BF
:10053000C49A04C0C49802C000E001C001E080E099
:100540005DDE84E18D0DD6DE89859A85069710F0F3
:1005500083E101C082E1CEDE8FE391E0BADEE12FDC
:10056000F0E0EE0FFF1FE95CFE4F8591949189DE6C
:1005700083E391E0AEDEC70160E17EE053D06C0121
:10058000862FB8DE81E1B6DEC6016CE370E04AD0AA
:10059000862F63DE81E1AEDEC7016CE370E042D0FE
:1005A0005CDE82E02BDEC1016CDE8FE291E091DE49
:1005B00089859A8566DE83E391E08BDEC501B4010F
:1005C00028EE33E040E050E041D0C9015ADE8BE232
:1005D00091E07FDEA3EDB0E31197F1F700C00000DA
:1005E0006D817E818F81988569837A838B839C83DB
:1005F00021CFEE27FF27AA27BB2708C0A20FB31FD2
:10060000E41FF51F220F331F441F551F9695879532
:100610007795679598F37040A9F7009799F7BD0112
:10062000CF010895AA1BBB1B51E107C0AA1FBB1F26
:10063000A617B70710F0A61BB70B881F991F5A956E
:10064000A9F780959095BC01CD010895A1E21A2EDD
:10065000AA1BBB1BFD010DC0AA1FBB1FEE1FFF1F66
:10066000A217B307E407F50720F0A21BB30BE40BB6
:10067000F50B661F771F881F991F1A9469F76095FD
:100680007095809590959B01AC01BD01CF010895B7
:04069000F894FFCF0C
:00000001FF
